{"abi":[{"type":"constructor","inputs":[{"name":"_agentRegistry","type":"address","internalType":"address"},{"name":"_reputationManager","type":"address","internalType":"address"},{"name":"_protocolAPI","type":"address","internalType":"address"}],"stateMutability":"nonpayable"},{"type":"function","name":"FORCE_RESOLVE_DELAY","inputs":[],"outputs":[{"name":"","type":"uint256","internalType":"uint256"}],"stateMutability":"view"},{"type":"function","name":"MAX_PROBABILITY","inputs":[],"outputs":[{"name":"","type":"uint256","internalType":"uint256"}],"stateMutability":"view"},{"type":"function","name":"MIN_PROBABILITY","inputs":[],"outputs":[{"name":"","type":"uint256","internalType":"uint256"}],"stateMutability":"view"},{"type":"function","name":"WAD","inputs":[],"outputs":[{"name":"","type":"uint256","internalType":"uint256"}],"stateMutability":"view"},{"type":"function","name":"WAD_INT","inputs":[],"outputs":[{"name":"","type":"int256","internalType":"int256"}],"stateMutability":"view"},{"type":"function","name":"agentRegistry","inputs":[],"outputs":[{"name":"","type":"address","internalType":"contract AgentRegistry"}],"stateMutability":"view"},{"type":"function","name":"apiGated","inputs":[],"outputs":[{"name":"","type":"bool","internalType":"bool"}],"stateMutability":"view"},{"type":"function","name":"createQuery","inputs":[{"name":"question","type":"string","internalType":"string"},{"name":"alpha","type":"uint256","internalType":"uint256"},{"name":"k","type":"uint256","internalType":"uint256"},{"name":"flatReward","type":"uint256","internalType":"uint256"},{"name":"bondAmount","type":"uint256","internalType":"uint256"},{"name":"liquidityParam","type":"uint256","internalType":"uint256"},{"name":"initialPrice","type":"uint256","internalType":"uint256"},{"name":"fundingAmount","type":"uint256","internalType":"uint256"},{"name":"minReputation","type":"int128","internalType":"int128"},{"name":"reputationTag","type":"string","internalType":"string"},{"name":"creator","type":"address","internalType":"address"},{"name":"queryChain","type":"string","internalType":"string"},{"name":"source","type":"string","internalType":"string"}],"outputs":[{"name":"queryId","type":"uint256","internalType":"uint256"}],"stateMutability":"nonpayable"},{"type":"function","name":"forceResolve","inputs":[{"name":"queryId","type":"uint256","internalType":"uint256"}],"outputs":[],"stateMutability":"nonpayable"},{"type":"function","name":"getPayoutAmount","inputs":[{"name":"queryId","type":"uint256","internalType":"uint256"},{"name":"reporter","type":"address","internalType":"address"}],"outputs":[{"name":"","type":"uint256","internalType":"uint256"}],"stateMutability":"view"},{"type":"function","name":"getQueryInfo","inputs":[{"name":"queryId","type":"uint256","internalType":"uint256"}],"outputs":[{"name":"question","type":"string","internalType":"string"},{"name":"currentPrice","type":"uint256","internalType":"uint256"},{"name":"creator","type":"address","internalType":"address"},{"name":"resolved","type":"bool","internalType":"bool"},{"name":"totalPool","type":"uint256","internalType":"uint256"},{"name":"reportCount","type":"uint256","internalType":"uint256"}],"stateMutability":"view"},{"type":"function","name":"getQueryParams","inputs":[{"name":"queryId","type":"uint256","internalType":"uint256"}],"outputs":[{"name":"alpha","type":"uint256","internalType":"uint256"},{"name":"k","type":"uint256","internalType":"uint256"},{"name":"flatReward","type":"uint256","internalType":"uint256"},{"name":"bondAmount","type":"uint256","internalType":"uint256"},{"name":"liquidityParam","type":"uint256","internalType":"uint256"},{"name":"createdAt","type":"uint256","internalType":"uint256"}],"stateMutability":"view"},{"type":"function","name":"getQuerySource","inputs":[{"name":"queryId","type":"uint256","internalType":"uint256"}],"outputs":[{"name":"","type":"string","internalType":"string"}],"stateMutability":"view"},{"type":"function","name":"getReport","inputs":[{"name":"queryId","type":"uint256","internalType":"uint256"},{"name":"index","type":"uint256","internalType":"uint256"}],"outputs":[{"name":"agentId","type":"uint256","internalType":"uint256"},{"name":"reporter","type":"address","internalType":"address"},{"name":"probability","type":"uint256","internalType":"uint256"},{"name":"priceBefore","type":"uint256","internalType":"uint256"},{"name":"priceAfter","type":"uint256","internalType":"uint256"},{"name":"bondAmount","type":"uint256","internalType":"uint256"},{"name":"sourceChain","type":"string","internalType":"string"},{"name":"timestamp","type":"uint256","internalType":"uint256"}],"stateMutability":"view"},{"type":"function","name":"getReportCount","inputs":[{"name":"queryId","type":"uint256","internalType":"uint256"}],"outputs":[{"name":"","type":"uint256","internalType":"uint256"}],"stateMutability":"view"},{"type":"function","name":"hasClaimed","inputs":[{"name":"","type":"uint256","internalType":"uint256"},{"name":"","type":"address","internalType":"address"}],"outputs":[{"name":"","type":"bool","internalType":"bool"}],"stateMutability":"view"},{"type":"function","name":"hasReported","inputs":[{"name":"","type":"uint256","internalType":"uint256"},{"name":"","type":"address","internalType":"address"}],"outputs":[{"name":"","type":"bool","internalType":"bool"}],"stateMutability":"view"},{"type":"function","name":"isQueryActive","inputs":[{"name":"queryId","type":"uint256","internalType":"uint256"}],"outputs":[{"name":"","type":"bool","internalType":"bool"}],"stateMutability":"view"},{"type":"function","name":"owner","inputs":[],"outputs":[{"name":"","type":"address","internalType":"address"}],"stateMutability":"view"},{"type":"function","name":"payouts","inputs":[{"name":"","type":"uint256","internalType":"uint256"},{"name":"","type":"address","internalType":"address"}],"outputs":[{"name":"","type":"uint256","internalType":"uint256"}],"stateMutability":"view"},{"type":"function","name":"protocolAPI","inputs":[],"outputs":[{"name":"","type":"address","internalType":"address"}],"stateMutability":"view"},{"type":"function","name":"queries","inputs":[{"name":"","type":"uint256","internalType":"uint256"}],"outputs":[{"name":"question","type":"string","internalType":"string"},{"name":"alpha","type":"uint256","internalType":"uint256"},{"name":"k","type":"uint256","internalType":"uint256"},{"name":"flatReward","type":"uint256","internalType":"uint256"},{"name":"bondAmount","type":"uint256","internalType":"uint256"},{"name":"liquidityParam","type":"uint256","internalType":"uint256"},{"name":"currentPrice","type":"uint256","internalType":"uint256"},{"name":"initialPrice","type":"uint256","internalType":"uint256"},{"name":"resolved","type":"bool","internalType":"bool"},{"name":"totalPool","type":"uint256","internalType":"uint256"},{"name":"creator","type":"address","internalType":"address"},{"name":"reportCount","type":"uint256","internalType":"uint256"},{"name":"createdAt","type":"uint256","internalType":"uint256"},{"name":"minReputation","type":"int128","internalType":"int128"},{"name":"reputationTag","type":"string","internalType":"string"},{"name":"queryChain","type":"string","internalType":"string"},{"name":"source","type":"string","internalType":"string"}],"stateMutability":"view"},{"type":"function","name":"queryCount","inputs":[],"outputs":[{"name":"","type":"uint256","internalType":"uint256"}],"stateMutability":"view"},{"type":"function","name":"recordPayoutClaim","inputs":[{"name":"queryId","type":"uint256","internalType":"uint256"},{"name":"reporter","type":"address","internalType":"address"}],"outputs":[],"stateMutability":"nonpayable"},{"type":"function","name":"reports","inputs":[{"name":"","type":"uint256","internalType":"uint256"},{"name":"","type":"uint256","internalType":"uint256"}],"outputs":[{"name":"agentId","type":"uint256","internalType":"uint256"},{"name":"reporter","type":"address","internalType":"address"},{"name":"probability","type":"uint256","internalType":"uint256"},{"name":"priceBefore","type":"uint256","internalType":"uint256"},{"name":"priceAfter","type":"uint256","internalType":"uint256"},{"name":"bondAmount","type":"uint256","internalType":"uint256"},{"name":"sourceChain","type":"string","internalType":"string"},{"name":"timestamp","type":"uint256","internalType":"uint256"}],"stateMutability":"view"},{"type":"function","name":"reputationManager","inputs":[],"outputs":[{"name":"","type":"address","internalType":"contract ReputationManager"}],"stateMutability":"view"},{"type":"function","name":"setAPIGated","inputs":[{"name":"_gated","type":"bool","internalType":"bool"}],"outputs":[],"stateMutability":"nonpayable"},{"type":"function","name":"setAgentRegistry","inputs":[{"name":"_registry","type":"address","internalType":"address"}],"outputs":[],"stateMutability":"nonpayable"},{"type":"function","name":"setProtocolAPI","inputs":[{"name":"_api","type":"address","internalType":"address"}],"outputs":[],"stateMutability":"nonpayable"},{"type":"function","name":"setReputationManager","inputs":[{"name":"_manager","type":"address","internalType":"address"}],"outputs":[],"stateMutability":"nonpayable"},{"type":"function","name":"submitReport","inputs":[{"name":"queryId","type":"uint256","internalType":"uint256"},{"name":"probability","type":"uint256","internalType":"uint256"},{"name":"reporter","type":"address","internalType":"address"},{"name":"bondAmount","type":"uint256","internalType":"uint256"},{"name":"sourceChain","type":"string","internalType":"string"}],"outputs":[],"stateMutability":"nonpayable"},{"type":"function","name":"transferOwnership","inputs":[{"name":"newOwner","type":"address","internalType":"address"}],"outputs":[],"stateMutability":"nonpayable"},{"type":"event","name":"APIGateUpdated","inputs":[{"name":"gated","type":"bool","indexed":false,"internalType":"bool"}],"anonymous":false},{"type":"event","name":"PayoutRecorded","inputs":[{"name":"queryId","type":"uint256","indexed":true,"internalType":"uint256"},{"name":"reporter","type":"address","indexed":true,"internalType":"address"},{"name":"amount","type":"uint256","indexed":false,"internalType":"uint256"}],"anonymous":false},{"type":"event","name":"ProtocolAPIUpdated","inputs":[{"name":"oldAPI","type":"address","indexed":true,"internalType":"address"},{"name":"newAPI","type":"address","indexed":true,"internalType":"address"}],"anonymous":false},{"type":"event","name":"QueryCreated","inputs":[{"name":"queryId","type":"uint256","indexed":true,"internalType":"uint256"},{"name":"question","type":"string","indexed":false,"internalType":"string"},{"name":"alpha","type":"uint256","indexed":false,"internalType":"uint256"},{"name":"initialPrice","type":"uint256","indexed":false,"internalType":"uint256"},{"name":"creator","type":"address","indexed":true,"internalType":"address"}],"anonymous":false},{"type":"event","name":"QueryResolved","inputs":[{"name":"queryId","type":"uint256","indexed":true,"internalType":"uint256"},{"name":"finalPrice","type":"uint256","indexed":false,"internalType":"uint256"},{"name":"totalReports","type":"uint256","indexed":false,"internalType":"uint256"}],"anonymous":false},{"type":"event","name":"ReportSubmitted","inputs":[{"name":"queryId","type":"uint256","indexed":true,"internalType":"uint256"},{"name":"agentId","type":"uint256","indexed":true,"internalType":"uint256"},{"name":"reporter","type":"address","indexed":true,"internalType":"address"},{"name":"probability","type":"uint256","indexed":false,"internalType":"uint256"},{"name":"priceBefore","type":"uint256","indexed":false,"internalType":"uint256"},{"name":"reportIndex","type":"uint256","indexed":false,"internalType":"uint256"}],"anonymous":false},{"type":"error","name":"AgentNotEligible","inputs":[]},{"type":"error","name":"AgentNotRegistered","inputs":[]},{"type":"error","name":"AlreadyClaimed","inputs":[]},{"type":"error","name":"AlreadyReported","inputs":[]},{"type":"error","name":"ChainMismatch","inputs":[]},{"type":"error","name":"ForceResolveNotReady","inputs":[]},{"type":"error","name":"InsufficientFunding","inputs":[]},{"type":"error","name":"InvalidParameters","inputs":[]},{"type":"error","name":"InvalidProbability","inputs":[]},{"type":"error","name":"NoPayout","inputs":[]},{"type":"error","name":"NotAuthorized","inputs":[]},{"type":"error","name":"NotOwner","inputs":[]},{"type":"error","name":"QueryNotActive","inputs":[]},{"type":"error","name":"QueryNotResolved","inputs":[]}],"bytecode":{"object":"0x608034620000e057601f620023cc38819003918201601f19168301916001600160401b03831184841017620000e457808492606094604052833981010312620000e0576200004d81620000f8565b6200006960406200006160208501620000f8565b9301620000f8565b6001600160a01b03918216929091908190620000878515156200010d565b16620000958115156200010d565b60018060a01b031993846002541617600255836003541617600355600160a01b911660018060a81b031960015416171760015533905f5416175f5560405161228290816200014a8239f35b5f80fd5b634e487b7160e01b5f52604160045260245ffd5b51906001600160a01b0382168203620000e057565b156200011557565b60405162461bcd60e51b815260206004820152600c60248201526b5a65726f206164647265737360a01b6044820152606490fdfe610100806040526004361015610013575f80fd5b5f3560e01c90816305666d7b14611786575080630d1cfcae1461175e5780630f0c3fc41461171557806316342d37146116f457806328342ecf146116a45780632d283db51461162f57806333dde715146115a957806334633f90146113b057806337c22b341461153d578063394ffd0314611518578063481bf8a8146113f45780634c725ab5146113b05780634e2f787914610dea5780635299287b14610dcd57806356a837f414610d7d5780636a146024146101dd5780636b868afb14610d5557806374032ec114610cdf57806381f8233814610c7b5780638383bba114610c53578063873f6f9e14610c0a5780638c3b925b14610bc95780638da5cb5b14610ba25780639b2aded414610b85578063a34803ad14610b09578063ab9c67ad14610984578063b331ba02146102d8578063be87bcfc1461026b578063bec9376314610221578063cc40a8ca146101ff578063e3aef017146101dd5763f2fde38b1461017d575f80fd5b346101d95760203660031901126101d9576101966117c2565b5f54906001600160a01b039081831633036101c75716906101b88215156119c9565b6001600160a01b031916175f55005b6040516330cd747160e01b8152600490fd5b5f80fd5b346101d9575f3660031901126101d9576020604051670de0b6b3a76400008152f35b346101d9575f3660031901126101d9576020604051670dbd2fc137a300008152f35b346101d95760203660031901126101d9576004355f526005602052602060405f2060048101541515908161025b575b506040519015158152f35b60ff915060080154161582610250565b346101d95761028d61027c366117d8565b905f52600660205260405f206117ee565b5080546102d460018060a01b03600184015416926002810154600382015460048301546005840154916102c7600660078701549601611874565b9360405198899889611954565b0390f35b346101d9576101a03660031901126101d9576004356001600160401b0381116101d95761030990369060040161199c565b9060249161010435600f0b61010435036101d957610124356001600160401b0381116101d95761033d90369060040161199c565b929061014435906001600160a01b03821682036101d9576001600160401b0361016435116101d957610375366101643560040161199c565b9091610184356001600160401b0381116101d95761039790369060040161199c565b92909360015460ff8160a01c169081610970575b5061095e57893515801561094b575b61093957608435156109395760a4351561093957662386f26fc1000060c435108015610926575b6109145767099e8db03256ce5d8060a435029060a4358204036109015761042090670de0b6b3a7640000610419604435606435611b7e565b9104611b14565b60e435106108ef57600454986104358a611b70565b600455895f52600560205260405f20936001600160401b038a1161086c576104678a610461875461181b565b87611b21565b5f8a601f811160011461088a5780610493925f9161087f575b508160011b915f199060031b1c19161790565b85555b8b35600186015560443560028601556064356003860155608435600486015560a435600586015560c43560068601819055600786015560e4356009860155600a850180546001600160a01b038a166001600160a01b031990911617905542600c860155600d850180546fffffffffffffffffffffffffffffffff19166fffffffffffffffffffffffffffffffff61010435161790556001600160401b03821161086c576105538261054a600e88015461181b565b600e8801611b21565b5f90601f83116001146107ff5761058192915f91836107f4575b50508160011b915f199060031b1c19161790565b600e8401555b6001600160401b0382116107e1576105af826105a6600f86015461181b565b600f8601611b21565b5f90601f83116001146107725791806105e092601095945f926107675750508160011b915f199060031b1c19161790565b600f8201555b01916001600160401b038211610754579682826020996106138a979561060d8b985461181b565b85611b21565b5f90601f83116001146106be57827f32e438f60baeeacba6783d6035fe30043d598600e101463b61434ba9183a3db0989995936080979593610669935f926106b35750508160011b915f199060031b1c19161790565b90555b60405194859360608552816060860152858501375f838901850152358983015260c43560408301526001600160a01b031695601f01601f19168101030190a3604051908152f35b013590508e8061056d565b979493929190601f19821698835f528c5f20915f5b8b81106107375750918391600193608099989796957f32e438f60baeeacba6783d6035fe30043d598600e101463b61434ba9183a3db09c9d1061071e575b505050811b01905561066c565b01355f19600384901b60f8161c191690558d8080610711565b8282013584558d9a508c9950600190930192908e01908e016106d3565b87634e487b7160e01b5f5260416004525ffd5b013590508c8061056d565b600f84015f5260205f20915f5b601f19851681106107c9575091839160019360109695601f198116106107b0575b505050811b01600f8201556105e6565b01355f19600384901b60f8161c191690558b80806107a0565b9092602060018192868601358155019401910161077f565b89634e487b7160e01b5f5260416004525ffd5b013590508d8061056d565b600e86939293015f5260205f20905f935b601f1984168510610854576001945083601f1981161061083b575b505050811b01600e840155610587565b01355f19600384901b60f8161c191690558c808061082b565b81810135835560209485019460019093019201610810565b8b634e487b7160e01b5f5260416004525ffd5b90508b01358f610480565b50855f5260205f20905f5b8b601f198e1682106108d75750508b601f198116106108be575b505060018a811b018555610496565b8a01355f1960038d901b60f8161c191690558c806108af565b60018394602093948493013581550193019101610895565b6040516357e000b160e01b8152600490fd5b8a634e487b7160e01b5f5260116004525ffd5b604051631ddde97960e31b8152600490fd5b50670dbd2fc137a3000060c435116103e1565b604051630e52390960e41b8152600490fd5b50670de0b6b3a76400008a3510156103ba565b60405163ea8e4eb560e01b8152600490fd5b6001600160a01b031633141590508b6103ab565b346101d95760203660031901126101d9576004355f52600560205260405f20806109ad81611874565b600182015490600283015460a052600383015460e0526004830154600584015460068501546007860154600887015460ff16600988015491600160a01b60019003600a8a01541693600b8a015495600c8b015497600d8c015499600e8d01610a1490611874565b9c600f01610a2190611874565b9d601001610a2e90611874565b60805260405160c0526102208060c0515260c05101610a4c91611916565b9a60c0516020015260a05160c0516040015260e05160c0516060015260c0516080015260c05160a0015260c05160c0015260c05160e00152151560c051610100015260c051610120015260c051610140015260c051610160015260c0516101800152600f0b60c0516101a0015260c051810360c0516101c00152610acf91611916565b60c051810360c0516101e00152610ae591611916565b60c051810360c051610200015260c0519060805190610b0391611916565b0360c051f35b346101d95760203660031901126101d95760043560015460ff8160a01c169081610b71575b5061095e57805f52600560205260405f2060ff600882015416610b5f57600b01541561093957610b5d90611bf9565b005b6040516365735ae760e01b8152600490fd5b6001600160a01b0316331415905082610b2e565b346101d9575f3660031901126101d9576020600454604051908152f35b346101d9575f3660031901126101d9575f546040516001600160a01b039091168152602090f35b346101d95760203660031901126101d9576004355f5260056020526102d4610bf6601060405f2001611874565b604051918291602083526020830190611916565b346101d95760403660031901126101d957610c236117ac565b6004355f52600860205260405f209060018060a01b03165f52602052602060ff60405f2054166040519015158152f35b346101d9575f3660031901126101d9576001546040516001600160a01b039091168152602090f35b346101d95760203660031901126101d9576004355f52600560205260c060405f206001810154906002810154906003810154600482015490600c600584015493015493604051958652602086015260408501526060840152608083015260a0820152f35b346101d95760203660031901126101d9576004358015158091036101d9575f546001600160a01b031633036101c7576001805460ff60a01b191660a083901b60ff60a01b161790556040519081527f2aa5a717442f55ee307f58f535d4627a6b8c32b884d1a0197151e0d3b4bdf3dd90602090a1005b346101d9575f3660031901126101d9576003546040516001600160a01b039091168152602090f35b346101d95760203660031901126101d957610d966117c2565b5f546001600160a01b039190821633036101c75716610db68115156119c9565b6001600160601b0360a01b60035416176003555f80f35b346101d9575f3660031901126101d95760206040516202a3008152f35b346101d95760a03660031901126101d9576004356044356001600160a01b03811681036101d9576064356084356001600160401b0381116101d957610e3390369060040161199c565b60015460ff8160a01c16908161139c575b5061095e57845f52600560205260405f209060ff600883015416610b5f5760048201548015610b5f57865f52600760205260405f2060018060a01b0387165f5260205260ff60405f20541661138a57841061093957662386f26fc10000602435108015611377575b61091457610ebb368285611a04565b60208151910120604051610edd81610ed681600f8801611a49565b0382611853565b60208151910120036113655760025460405163710d9c6960e11b81526001600160a01b0387811660048301529091169390602081602481885afa9081156112f5575f91611346575b501561133457604051630211925b60e11b81526001600160a01b038716600482015293602090859060249082905afa9384156112f5575f94611300575b50600d830154600f0b5f8113611264575b506006830194855495602435905560098401610f90828254611b14565b9055875f52600660205260405f2091604051936101008501928584106001600160401b0385111761123d57610ff59360405287865260018060a01b038a1660208701526024356040870152886060870152602435608087015260a08601523691611a04565b60c08301524260e083015280546801000000000000000081101561123d57611022916001820181556117ee565b91909161125157805182556001820160018060a01b036020830151166001600160601b0360a01b82541617905560408101516002830155606081015160038301556080810151600483015560a0810151600583015560c08101518051906001600160401b03821161123d576110a78261109e600687015461181b565b60068701611b21565b602090601f83116001146111c857926110df8360079460e094600b9998975f926111bd5750508160011b915f199060031b1c19161790565b60068501555b0151910155855f52600760205260405f2060018060a01b0386165f5260205260405f20600160ff198254161790550161111e8154611b70565b8091555f19938482019182116111a95760607f323627f8b048ff78a816132f9cd2f8b43afd69da29d9391e4466ab08d7b34c309187936040519660243588526020880152604087015260018060a01b031694a4815f52600560205260405f20904301904382116111a9576001670de0b6b3a7640000910154914006106111a057005b610b5d90611bf9565b634e487b7160e01b5f52601160045260245ffd5b015190508d8061056d565b90600685015f5260205f20915f5b601f198516811061122557508360e093600b98979693600193600797601f1981161061120d575b505050811b0160068501556110e5565b01515f1960f88460031b161c191690558c80806111fd565b919260206001819286850151815501940192016111d6565b634e487b7160e01b5f52604160045260245ffd5b634e487b7160e01b5f525f60045260245ffd5b60206112969160018060a01b036003541660405180809581946352f9882360e11b8352600e8b01908c60048501611af2565b03915afa9081156112f5575f916112c6575b50156112b45787610f73565b60405163ce0ca13760e01b8152600490fd5b6112e8915060203d6020116112ee575b6112e08183611853565b810190611ada565b886112a8565b503d6112d6565b6040513d5f823e3d90fd5b9093506020813d60201161132c575b8161131c60209383611853565b810103126101d957519287610f62565b3d915061130f565b6040516383bcfb4760e01b8152600490fd5b61135f915060203d6020116112ee576112e08183611853565b88610f25565b60405163a6226dc560e01b8152600490fd5b50670dbd2fc137a3000060243511610eac565b60405163770c15e360e01b8152600490fd5b6001600160a01b0316331415905086610e44565b346101d95760403660031901126101d9576113c96117ac565b6004355f52600960205260405f209060018060a01b03165f52602052602060405f2054604051908152f35b346101d95760403660031901126101d9576004356114106117ac565b9060015460ff8160a01c169081611504575b5061095e57805f5260206005815260ff600860405f20015416156114f2575f8281526008825260408082206001600160a01b0390951680835294835290205460ff166114e057815f526009815260405f20835f52815260405f20549081156114ce577f9f8684873e5f5094fedbb70190e1ab56fabd995db373022a01120bef46817e0091835f526008825260405f20855f52825260405f20600160ff19825416179055604051908152a3005b60405163439ece7760e01b8152600490fd5b604051630c8d9eab60e31b8152600490fd5b60405163049627f560e01b8152600490fd5b6001600160a01b0316331415905083611422565b346101d9575f3660031901126101d957602060ff60015460a01c166040519015158152f35b346101d95760203660031901126101d9576115566117c2565b5f546001600160a01b0390811633036101c75780600154921691826001600160601b0360a01b821617600155167f3e1afb4f140d5094a49187f56cf5ef68c14651b147b76e5ce25994c0783a60c85f80a3005b346101d95760203660031901126101d9576004355f52600560205261160f60405f20600681015460018060a01b03600a830154169160ff6008820154166009820154906115fa600b84015493611874565b9460405196879660c0885260c0880190611916565b946020870152604086015215156060850152608084015260a08301520390f35b346101d95761163d366117d8565b905f52600660205260405f209081548110156101d95761165c916117ee565b5080546102d460018060a01b036001840154169260028101549060038101546004820154600583015491600761169460068601611874565b9401549460405198899889611954565b346101d95760203660031901126101d9576116bd6117c2565b5f546001600160a01b039190821633036101c757166116dd8115156119c9565b6001600160601b0360a01b60025416176002555f80f35b346101d9575f3660031901126101d9576020604051662386f26fc100008152f35b346101d95760403660031901126101d95761172e6117ac565b6004355f52600760205260405f209060018060a01b03165f52602052602060ff60405f2054166040519015158152f35b346101d9575f3660031901126101d9576002546040516001600160a01b039091168152602090f35b346101d95760203660031901126101d9576020906004355f526006825260405f20548152f35b602435906001600160a01b03821682036101d957565b600435906001600160a01b03821682036101d957565b60409060031901126101d9576004359060243590565b8054821015611807575f5260205f209060031b01905f90565b634e487b7160e01b5f52603260045260245ffd5b90600182811c92168015611849575b602083101461183557565b634e487b7160e01b5f52602260045260245ffd5b91607f169161182a565b90601f801991011681019081106001600160401b0382111761123d57604052565b9060405191825f82546118868161181b565b908184526020946001916001811690815f146118f457506001146118b6575b5050506118b492500383611853565b565b5f90815285812095935091905b8183106118dc5750506118b493508201015f80806118a5565b855488840185015294850194879450918301916118c3565b925050506118b494925060ff191682840152151560051b8201015f80806118a5565b91908251928382525f5b848110611940575050825f602080949584010152601f8019910116010190565b602081830181015184830182015201611920565b9897969361199795919360e09793610100958c5260018060a01b031660208c015260408b015260608a0152608089015260a08801528060c0880152860190611916565b930152565b9181601f840112156101d9578235916001600160401b0383116101d957602083818601950101116101d957565b156119d057565b60405162461bcd60e51b815260206004820152600c60248201526b5a65726f206164647265737360a01b6044820152606490fd5b9291926001600160401b03821161123d5760405191611a2d601f8201601f191660200184611853565b8294818452818301116101d9578281602093845f960137010152565b80545f9392611a578261181b565b918282526020936001916001811690815f14611abb5750600114611a7d575b5050505050565b90939495505f92919252835f2092845f945b838610611aa757505050500101905f80808080611a76565b805485870183015294019385908201611a8f565b60ff19168685015250505090151560051b010191505f80808080611a76565b908160209103126101d9575180151581036101d95790565b611b1193926060928252600f0b60208201528160408201520190611a49565b90565b919082018092116111a957565b601f8211611b2e57505050565b5f5260205f20906020601f840160051c83019310611b66575b601f0160051c01905b818110611b5b575050565b5f8155600101611b50565b9091508190611b47565b5f1981146111a95760010190565b818102929181159184041417156111a957565b6001600160401b03811161123d5760051b60200190565b81810292915f8212600160ff1b8214166111a95781840514901517156111a957565b9190915f83820193841291129080158216911516176111a957565b80518210156118075760209160051b010190565b90815f5260059160209260058452604090815f206008810195600196600160ff1982541617905560069160068252845f20928354938415611f2f575f198501908582116111a957600291611c4c916117ee565b500154945f611c5a86611b91565b91611c6789519384611853565b868352601f19611c7688611b91565b0136878501375f9060028601548803888111905b8b8d8b8610611e655750505050505060099060098501549081811180611e5c575b611e09575b509293600e0192505f5b868110611cf65750505050507f2aa685cca87e83caa6aad060a047f6877ae695e7f2d4a556e6a51b3fb0842196949596508351928352820152a2565b8b908a5f52858752611d0a818b5f206117ee565b50611d158286611be5565b518c5f528489528b5f2060018060a01b038095840154165f5289528b5f20556003928382015490611d5f8c611d59600494611d538688015484611f53565b92611f53565b90611f3b565b9461271095868102968188051490151715611df6575416915493823b156101d9578f948893670de0b6b3a76400008f5f94611db4869251988996879586946305ec94df60e01b865205600f0b908a8501611af2565b03925af1611dc5575b505001611cba565b909192506001600160401b038211611de3575089528b905f80611dbd565b604190634e487b7160e01b5f525260245ffd5b601183634e487b7160e01b5f525260245ffd5b5f5b888110611e185750611cb0565b611e2c83611e268388611be5565b51611b7e565b908215611e4857828f9204611e418288611be5565b5201611e0b565b634e487b7160e01b5f52601260045260245ffd5b50801515611cab565b8584959697939492611e7d925f528a8d525f206117ee565b50906111a9578f91611ec291868b8f878b10611ecc575050015460038b0154611ea591611b14565b611eaf888a611be5565b525b611ebb8789611be5565b5190611b14565b9401929190611c8a565b8383670de0b6b3a76400009394611ef9611f0494611d596003611f0b9a0154611d53600488015484611f53565b920154940154611ba8565b0590611bca565b5f811315611f2357611f1d888a611be5565b52611eb1565b505f611f1d888a611be5565b50505050505050509050565b81810392915f1380158285131691841216176111a957565b662386f26fc10000808210158061204d575b156120175782101580612005575b15611fcf57611f818261205f565b91670de0b6b3a76400009081038181116111a957611f9e9061205f565b91808203925f8212838512811690848613901516176111a95782611fc8611b1196611f0494611ba8565b0593611ba8565b60405162461bcd60e51b815260206004820152600e60248201526d70206f7574206f662072616e676560901b6044820152606490fd5b50670dbd2fc137a30000821115611f73565b60405162461bcd60e51b815260206004820152600e60248201526d71206f7574206f662072616e676560901b6044820152606490fd5b50670dbd2fc137a30000821115611f65565b80156122105780670de0b6b3a764000080831292836121f7575b505f905b671bc16d674ec800008312156121d957670de0b6b3a763ffff1983016001848213166111a957818102908082058314901517156111a957818401935f83861291129080158216911516176111a9578315611e4857600160ff1b938185145f198214166111a9578261218661215c61218061218e96612174600d966007980561216e836121628161210d8580611ba8565b05809885846121528461214c836121408361213a83829f8361212e91611ba8565b059860038a0590611bca565b97611ba8565b05946005860590611bca565b93611ba8565b059e8f0590611bca565b9c611ba8565b059960098b0590611bca565b98611ba8565b0595600b870590611bca565b94611ba8565b050590611bca565b908160011b91808305600214901517156111a95767099e8db03256ce5d908181029181830514901517156111a9576121c591611bca565b916121ce575090565b81146111a9575f0390565b600290920591906001600160ff1b0381146111a9576001019061207d565b6ec097ce7bc90715b34b9f10000000000591505f612079565b60405162461bcd60e51b815260206004820152601460248201527306c6e5761643a2078206d757374206265203e20360641b6044820152606490fdfea26469706673582212209c3e12dbecc4f9c4182bbfbff4cbeb9aa7141d07595a2b33f0f919c32eba863364736f6c63430008180033","linkReferences":{}},"methodIdentifiers":{"FORCE_RESOLVE_DELAY()":"5299287b","MAX_PROBABILITY()":"cc40a8ca","MIN_PROBABILITY()":"16342d37","WAD()":"6a146024","WAD_INT()":"e3aef017","agentRegistry()":"0d1cfcae","apiGated()":"394ffd03","createQuery(string,uint256,uint256,uint256,uint256,uint256,uint256,uint256,int128,string,address,string,string)":"b331ba02","forceResolve(uint256)":"a34803ad","getPayoutAmount(uint256,address)":"34633f90","getQueryInfo(uint256)":"33dde715","getQueryParams(uint256)":"81f82338","getQuerySource(uint256)":"8c3b925b","getReport(uint256,uint256)":"be87bcfc","getReportCount(uint256)":"05666d7b","hasClaimed(uint256,address)":"873f6f9e","hasReported(uint256,address)":"0f0c3fc4","isQueryActive(uint256)":"bec93763","owner()":"8da5cb5b","payouts(uint256,address)":"4c725ab5","protocolAPI()":"8383bba1","queries(uint256)":"ab9c67ad","queryCount()":"9b2aded4","recordPayoutClaim(uint256,address)":"481bf8a8","reports(uint256,uint256)":"2d283db5","reputationManager()":"6b868afb","setAPIGated(bool)":"74032ec1","setAgentRegistry(address)":"28342ecf","setProtocolAPI(address)":"37c22b34","setReputationManager(address)":"56a837f4","submitReport(uint256,uint256,address,uint256,string)":"4e2f7879","transferOwnership(address)":"f2fde38b"},"id":25}