{"abi":[{"type":"constructor","inputs":[{"name":"_agentRegistry","type":"address","internalType":"address"},{"name":"_reputationManager","type":"address","internalType":"address"},{"name":"_protocolAPI","type":"address","internalType":"address"}],"stateMutability":"nonpayable"},{"type":"function","name":"FORCE_RESOLVE_DELAY","inputs":[],"outputs":[{"name":"","type":"uint256","internalType":"uint256"}],"stateMutability":"view"},{"type":"function","name":"MAX_PROBABILITY","inputs":[],"outputs":[{"name":"","type":"uint256","internalType":"uint256"}],"stateMutability":"view"},{"type":"function","name":"MIN_PROBABILITY","inputs":[],"outputs":[{"name":"","type":"uint256","internalType":"uint256"}],"stateMutability":"view"},{"type":"function","name":"WAD","inputs":[],"outputs":[{"name":"","type":"uint256","internalType":"uint256"}],"stateMutability":"view"},{"type":"function","name":"WAD_INT","inputs":[],"outputs":[{"name":"","type":"int256","internalType":"int256"}],"stateMutability":"view"},{"type":"function","name":"agentRegistry","inputs":[],"outputs":[{"name":"","type":"address","internalType":"contract AgentRegistry"}],"stateMutability":"view"},{"type":"function","name":"apiGated","inputs":[],"outputs":[{"name":"","type":"bool","internalType":"bool"}],"stateMutability":"view"},{"type":"function","name":"createQuery","inputs":[{"name":"question","type":"string","internalType":"string"},{"name":"alpha","type":"uint256","internalType":"uint256"},{"name":"k","type":"uint256","internalType":"uint256"},{"name":"flatReward","type":"uint256","internalType":"uint256"},{"name":"bondAmount","type":"uint256","internalType":"uint256"},{"name":"liquidityParam","type":"uint256","internalType":"uint256"},{"name":"initialPrice","type":"uint256","internalType":"uint256"},{"name":"fundingAmount","type":"uint256","internalType":"uint256"},{"name":"minReputation","type":"int128","internalType":"int128"},{"name":"reputationTag","type":"string","internalType":"string"},{"name":"creator","type":"address","internalType":"address"},{"name":"queryChain","type":"string","internalType":"string"}],"outputs":[{"name":"queryId","type":"uint256","internalType":"uint256"}],"stateMutability":"nonpayable"},{"type":"function","name":"forceResolve","inputs":[{"name":"queryId","type":"uint256","internalType":"uint256"}],"outputs":[],"stateMutability":"nonpayable"},{"type":"function","name":"getPayoutAmount","inputs":[{"name":"queryId","type":"uint256","internalType":"uint256"},{"name":"reporter","type":"address","internalType":"address"}],"outputs":[{"name":"","type":"uint256","internalType":"uint256"}],"stateMutability":"view"},{"type":"function","name":"getQueryInfo","inputs":[{"name":"queryId","type":"uint256","internalType":"uint256"}],"outputs":[{"name":"question","type":"string","internalType":"string"},{"name":"currentPrice","type":"uint256","internalType":"uint256"},{"name":"creator","type":"address","internalType":"address"},{"name":"resolved","type":"bool","internalType":"bool"},{"name":"totalPool","type":"uint256","internalType":"uint256"},{"name":"reportCount","type":"uint256","internalType":"uint256"}],"stateMutability":"view"},{"type":"function","name":"getQueryParams","inputs":[{"name":"queryId","type":"uint256","internalType":"uint256"}],"outputs":[{"name":"alpha","type":"uint256","internalType":"uint256"},{"name":"k","type":"uint256","internalType":"uint256"},{"name":"flatReward","type":"uint256","internalType":"uint256"},{"name":"bondAmount","type":"uint256","internalType":"uint256"},{"name":"liquidityParam","type":"uint256","internalType":"uint256"},{"name":"createdAt","type":"uint256","internalType":"uint256"}],"stateMutability":"view"},{"type":"function","name":"getReport","inputs":[{"name":"queryId","type":"uint256","internalType":"uint256"},{"name":"index","type":"uint256","internalType":"uint256"}],"outputs":[{"name":"agentId","type":"uint256","internalType":"uint256"},{"name":"reporter","type":"address","internalType":"address"},{"name":"probability","type":"uint256","internalType":"uint256"},{"name":"priceBefore","type":"uint256","internalType":"uint256"},{"name":"priceAfter","type":"uint256","internalType":"uint256"},{"name":"bondAmount","type":"uint256","internalType":"uint256"},{"name":"sourceChain","type":"string","internalType":"string"},{"name":"timestamp","type":"uint256","internalType":"uint256"}],"stateMutability":"view"},{"type":"function","name":"getReportCount","inputs":[{"name":"queryId","type":"uint256","internalType":"uint256"}],"outputs":[{"name":"","type":"uint256","internalType":"uint256"}],"stateMutability":"view"},{"type":"function","name":"hasClaimed","inputs":[{"name":"","type":"uint256","internalType":"uint256"},{"name":"","type":"address","internalType":"address"}],"outputs":[{"name":"","type":"bool","internalType":"bool"}],"stateMutability":"view"},{"type":"function","name":"hasReported","inputs":[{"name":"","type":"uint256","internalType":"uint256"},{"name":"","type":"address","internalType":"address"}],"outputs":[{"name":"","type":"bool","internalType":"bool"}],"stateMutability":"view"},{"type":"function","name":"isQueryActive","inputs":[{"name":"queryId","type":"uint256","internalType":"uint256"}],"outputs":[{"name":"","type":"bool","internalType":"bool"}],"stateMutability":"view"},{"type":"function","name":"owner","inputs":[],"outputs":[{"name":"","type":"address","internalType":"address"}],"stateMutability":"view"},{"type":"function","name":"payouts","inputs":[{"name":"","type":"uint256","internalType":"uint256"},{"name":"","type":"address","internalType":"address"}],"outputs":[{"name":"","type":"uint256","internalType":"uint256"}],"stateMutability":"view"},{"type":"function","name":"protocolAPI","inputs":[],"outputs":[{"name":"","type":"address","internalType":"address"}],"stateMutability":"view"},{"type":"function","name":"queries","inputs":[{"name":"","type":"uint256","internalType":"uint256"}],"outputs":[{"name":"question","type":"string","internalType":"string"},{"name":"alpha","type":"uint256","internalType":"uint256"},{"name":"k","type":"uint256","internalType":"uint256"},{"name":"flatReward","type":"uint256","internalType":"uint256"},{"name":"bondAmount","type":"uint256","internalType":"uint256"},{"name":"liquidityParam","type":"uint256","internalType":"uint256"},{"name":"currentPrice","type":"uint256","internalType":"uint256"},{"name":"initialPrice","type":"uint256","internalType":"uint256"},{"name":"resolved","type":"bool","internalType":"bool"},{"name":"totalPool","type":"uint256","internalType":"uint256"},{"name":"creator","type":"address","internalType":"address"},{"name":"reportCount","type":"uint256","internalType":"uint256"},{"name":"createdAt","type":"uint256","internalType":"uint256"},{"name":"minReputation","type":"int128","internalType":"int128"},{"name":"reputationTag","type":"string","internalType":"string"},{"name":"queryChain","type":"string","internalType":"string"}],"stateMutability":"view"},{"type":"function","name":"queryCount","inputs":[],"outputs":[{"name":"","type":"uint256","internalType":"uint256"}],"stateMutability":"view"},{"type":"function","name":"recordPayoutClaim","inputs":[{"name":"queryId","type":"uint256","internalType":"uint256"},{"name":"reporter","type":"address","internalType":"address"}],"outputs":[],"stateMutability":"nonpayable"},{"type":"function","name":"reports","inputs":[{"name":"","type":"uint256","internalType":"uint256"},{"name":"","type":"uint256","internalType":"uint256"}],"outputs":[{"name":"agentId","type":"uint256","internalType":"uint256"},{"name":"reporter","type":"address","internalType":"address"},{"name":"probability","type":"uint256","internalType":"uint256"},{"name":"priceBefore","type":"uint256","internalType":"uint256"},{"name":"priceAfter","type":"uint256","internalType":"uint256"},{"name":"bondAmount","type":"uint256","internalType":"uint256"},{"name":"sourceChain","type":"string","internalType":"string"},{"name":"timestamp","type":"uint256","internalType":"uint256"}],"stateMutability":"view"},{"type":"function","name":"reputationManager","inputs":[],"outputs":[{"name":"","type":"address","internalType":"contract ReputationManager"}],"stateMutability":"view"},{"type":"function","name":"setAPIGated","inputs":[{"name":"_gated","type":"bool","internalType":"bool"}],"outputs":[],"stateMutability":"nonpayable"},{"type":"function","name":"setAgentRegistry","inputs":[{"name":"_registry","type":"address","internalType":"address"}],"outputs":[],"stateMutability":"nonpayable"},{"type":"function","name":"setProtocolAPI","inputs":[{"name":"_api","type":"address","internalType":"address"}],"outputs":[],"stateMutability":"nonpayable"},{"type":"function","name":"setReputationManager","inputs":[{"name":"_manager","type":"address","internalType":"address"}],"outputs":[],"stateMutability":"nonpayable"},{"type":"function","name":"submitReport","inputs":[{"name":"queryId","type":"uint256","internalType":"uint256"},{"name":"probability","type":"uint256","internalType":"uint256"},{"name":"reporter","type":"address","internalType":"address"},{"name":"bondAmount","type":"uint256","internalType":"uint256"},{"name":"sourceChain","type":"string","internalType":"string"}],"outputs":[],"stateMutability":"nonpayable"},{"type":"function","name":"transferOwnership","inputs":[{"name":"newOwner","type":"address","internalType":"address"}],"outputs":[],"stateMutability":"nonpayable"},{"type":"event","name":"APIGateUpdated","inputs":[{"name":"gated","type":"bool","indexed":false,"internalType":"bool"}],"anonymous":false},{"type":"event","name":"PayoutRecorded","inputs":[{"name":"queryId","type":"uint256","indexed":true,"internalType":"uint256"},{"name":"reporter","type":"address","indexed":true,"internalType":"address"},{"name":"amount","type":"uint256","indexed":false,"internalType":"uint256"}],"anonymous":false},{"type":"event","name":"ProtocolAPIUpdated","inputs":[{"name":"oldAPI","type":"address","indexed":true,"internalType":"address"},{"name":"newAPI","type":"address","indexed":true,"internalType":"address"}],"anonymous":false},{"type":"event","name":"QueryCreated","inputs":[{"name":"queryId","type":"uint256","indexed":true,"internalType":"uint256"},{"name":"question","type":"string","indexed":false,"internalType":"string"},{"name":"alpha","type":"uint256","indexed":false,"internalType":"uint256"},{"name":"initialPrice","type":"uint256","indexed":false,"internalType":"uint256"},{"name":"creator","type":"address","indexed":true,"internalType":"address"}],"anonymous":false},{"type":"event","name":"QueryResolved","inputs":[{"name":"queryId","type":"uint256","indexed":true,"internalType":"uint256"},{"name":"finalPrice","type":"uint256","indexed":false,"internalType":"uint256"},{"name":"totalReports","type":"uint256","indexed":false,"internalType":"uint256"}],"anonymous":false},{"type":"event","name":"ReportSubmitted","inputs":[{"name":"queryId","type":"uint256","indexed":true,"internalType":"uint256"},{"name":"agentId","type":"uint256","indexed":true,"internalType":"uint256"},{"name":"reporter","type":"address","indexed":true,"internalType":"address"},{"name":"probability","type":"uint256","indexed":false,"internalType":"uint256"},{"name":"priceBefore","type":"uint256","indexed":false,"internalType":"uint256"},{"name":"reportIndex","type":"uint256","indexed":false,"internalType":"uint256"}],"anonymous":false},{"type":"error","name":"AgentNotEligible","inputs":[]},{"type":"error","name":"AgentNotRegistered","inputs":[]},{"type":"error","name":"AlreadyClaimed","inputs":[]},{"type":"error","name":"AlreadyReported","inputs":[]},{"type":"error","name":"ChainMismatch","inputs":[]},{"type":"error","name":"ForceResolveNotReady","inputs":[]},{"type":"error","name":"InsufficientFunding","inputs":[]},{"type":"error","name":"InvalidParameters","inputs":[]},{"type":"error","name":"InvalidProbability","inputs":[]},{"type":"error","name":"NoPayout","inputs":[]},{"type":"error","name":"NotAuthorized","inputs":[]},{"type":"error","name":"NotOwner","inputs":[]},{"type":"error","name":"QueryNotActive","inputs":[]},{"type":"error","name":"QueryNotResolved","inputs":[]}],"bytecode":{"object":"0x608034620000e057601f620021f838819003918201601f19168301916001600160401b03831184841017620000e457808492606094604052833981010312620000e0576200004d81620000f8565b6200006960406200006160208501620000f8565b9301620000f8565b6001600160a01b03918216929091908190620000878515156200010d565b16620000958115156200010d565b60018060a01b031993846002541617600255836003541617600355600160a01b911660018060a81b031960015416171760015533905f5416175f556040516120ae90816200014a8239f35b5f80fd5b634e487b7160e01b5f52604160045260245ffd5b51906001600160a01b0382168203620000e057565b156200011557565b60405162461bcd60e51b815260206004820152600c60248201526b5a65726f206164647265737360a01b6044820152606490fdfe60a0806040526004361015610012575f80fd5b5f3560e01c90816305666d7b146115b2575080630d1cfcae1461158a5780630f0c3fc41461154157806316342d371461152057806328342ecf146114d05780632d283db51461145b57806333dde715146113d557806334633f90146111dc57806337c22b3414611369578063394ffd0314611344578063481bf8a8146112205780634c725ab5146111dc5780634e2f787914610c3e5780635299287b14610c2157806356a837f414610bd15780636a146024146101d15780636b868afb14610ba957806374032ec114610b3357806381f8233814610acf5780638383bba114610aa7578063873f6f9e14610a5e5780638da5cb5b14610a375780639b2aded414610a1a578063a34803ad1461099e578063ab9c67ad1461084d578063be87bcfc146107e0578063bec9376314610796578063cc40a8ca14610774578063cdb68f5d146101f3578063e3aef017146101d15763f2fde38b14610171575f80fd5b346101cd5760203660031901126101cd5761018a6115ee565b5f54906001600160a01b039081831633036101bb5716906101ac8215156117f5565b6001600160a01b031916175f55005b6040516330cd747160e01b8152600490fd5b5f80fd5b346101cd575f3660031901126101cd576020604051670de0b6b3a76400008152f35b346101cd576101803660031901126101cd576004356001600160401b0381116101cd576102249036906004016117c8565b61010435600f0b61010435036101cd57610124356001600160401b0381116101cd576102549036906004016117c8565b61014435939092916001600160a01b03851685036101cd57610164356001600160401b0381116101cd5761028c9036906004016117c8565b9160015460ff8160a01c169081610760575b5061074e5760243515801561073a575b61072857608435156107285760a4351561072857662386f26fc1000060c435108015610715575b6107035767099e8db03256ce5d60a4358082020481036106ef5761031590670de0b6b3a764000061030a6044356064356119aa565b9160a4350204611940565b60e435106106dd576004549561032a8761199c565b600455865f52600560205260405f20916001600160401b0387116105e15761035c876103568554611647565b8561194d565b5f87601f811160011461067a5780610388925f9161066f575b508160011b915f199060031b1c19161790565b83555b602435600184015560443560028401556064356003840155608435600484015560a435600584015560c43560068401819055600784015560e4356009840155600a830180546001600160a01b038b166001600160a01b031990911617905542600c840155600d830180546fffffffffffffffffffffffffffffffff19166fffffffffffffffffffffffffffffffff61010435161790556001600160401b0382116105e15761044982610440600e860154611647565b600e860161194d565b5f90601f831160011461060057918061047b92600f95945f926105f5575b50508160011b915f199060031b1c19161790565b600e8201555b01956001600160401b0383116105e157868386936104a6899661035660209c54611647565b5f90601f83116001146105525782608095937f32e438f60baeeacba6783d6035fe30043d598600e101463b61434ba9183a3db0989995936104fb935f926105475750508160011b915f199060031b1c19161790565b90555b60405193849260608452816060850152848401375f8288018401526024358983015260c43560408301526001600160a01b031695601f01601f19168101030190a3604051908152f35b013590508d80610467565b601f19831691845f528b5f20925f5b8181106105c45750926001928592608098967f32e438f60baeeacba6783d6035fe30043d598600e101463b61434ba9183a3db09b9c9896106105ab575b505050811b0190556104fe565b01355f19600384901b60f8161c191690558c808061059e565b8284013585558c99508b9850600190940193918d01918d01610561565b634e487b7160e01b5f52604160045260245ffd5b013590508b80610467565b600e84015f5260205f20915f5b601f19851681106106575750918391600193600f9695601f1981161061063e575b505050811b01600e820155610481565b01355f19600384901b60f8161c191690558a808061062e565b9092602060018192868601358155019401910161060d565b90508801358c610375565b50835f5260205f20905f5b601f198a1681106106c5575088601f198116106106ac575b5050600187811b01835561038b565b8701355f1960038a901b60f8161c19169055898061069d565b9091602060018192858c013581550193019101610685565b6040516357e000b160e01b8152600490fd5b634e487b7160e01b5f52601160045260245ffd5b604051631ddde97960e31b8152600490fd5b50670dbd2fc137a3000060c435116102d5565b604051630e52390960e41b8152600490fd5b50670de0b6b3a764000060243510156102ae565b60405163ea8e4eb560e01b8152600490fd5b6001600160a01b031633141590508861029e565b346101cd575f3660031901126101cd576020604051670dbd2fc137a300008152f35b346101cd5760203660031901126101cd576004355f526005602052602060405f206004810154151590816107d0575b506040519015158152f35b60ff9150600801541615826107c5565b346101cd576108026107f136611604565b905f52600660205260405f2061161a565b50805461084960018060a01b036001840154169260028101546003820154600483015460058401549161083c6006600787015496016116a0565b9360405198899889611780565b0390f35b346101cd5760203660031901126101cd576004355f52600560205260405f20610875816116a0565b90600181015481600281015460038201546004830154600584015460068501546007860154600887015460ff1691600988015493600160a01b60019003600a8a01541695600b8a015497600c8b015499600d8c01549b600e016108d7906116a0565b9d600f016108e4906116a0565b9e60405160805261020080608051526080510161090091611742565b9c6080516020015260805160400152608051606001526080516080015260805160a0015260805160c0015260805160e00152151560805161010001526080516101200152608051610140015260805161016001526080516101800152600f0b6080516101a0015260805181036080516101c0015261097d91611742565b9060805182036080516101e001526080519161099891611742565b03608051f35b346101cd5760203660031901126101cd5760043560015460ff8160a01c169081610a06575b5061074e57805f52600560205260405f2060ff6008820154166109f457600b015415610728576109f290611a25565b005b6040516365735ae760e01b8152600490fd5b6001600160a01b03163314159050826109c3565b346101cd575f3660031901126101cd576020600454604051908152f35b346101cd575f3660031901126101cd575f546040516001600160a01b039091168152602090f35b346101cd5760403660031901126101cd57610a776115d8565b6004355f52600860205260405f209060018060a01b03165f52602052602060ff60405f2054166040519015158152f35b346101cd575f3660031901126101cd576001546040516001600160a01b039091168152602090f35b346101cd5760203660031901126101cd576004355f52600560205260c060405f206001810154906002810154906003810154600482015490600c600584015493015493604051958652602086015260408501526060840152608083015260a0820152f35b346101cd5760203660031901126101cd576004358015158091036101cd575f546001600160a01b031633036101bb576001805460ff60a01b191660a083901b60ff60a01b161790556040519081527f2aa5a717442f55ee307f58f535d4627a6b8c32b884d1a0197151e0d3b4bdf3dd90602090a1005b346101cd575f3660031901126101cd576003546040516001600160a01b039091168152602090f35b346101cd5760203660031901126101cd57610bea6115ee565b5f546001600160a01b039190821633036101bb5716610c0a8115156117f5565b6001600160601b0360a01b60035416176003555f80f35b346101cd575f3660031901126101cd5760206040516202a3008152f35b346101cd5760a03660031901126101cd576004356044356001600160a01b03811681036101cd576064356084356001600160401b0381116101cd57610c879036906004016117c8565b60015460ff8160a01c1690816111c8575b5061074e57845f52600560205260405f209060ff6008830154166109f457600482015480156109f457865f52600760205260405f2060018060a01b0387165f5260205260ff60405f2054166111b657841061072857662386f26fc100006024351080156111a3575b61070357610d0f368285611830565b60208151910120604051610d3181610d2a81600f8801611875565b038261167f565b60208151910120036111915760025460405163710d9c6960e11b81526001600160a01b0387811660048301529091169390602081602481885afa908115611121575f91611172575b501561116057604051630211925b60e11b81526001600160a01b038716600482015293602090859060249082905afa938415611121575f9461112c575b50600d830154600f0b5f8113611090575b506006830194855495602435905560098401610de4828254611940565b9055875f52600660205260405f2091604051936101008501928584106001600160401b038511176105e157610e499360405287865260018060a01b038a1660208701526024356040870152886060870152602435608087015260a08601523691611830565b60c08301524260e08301528054680100000000000000008110156105e157610e769160018201815561161a565b91909161107d57805182556001820160018060a01b036020830151166001600160601b0360a01b82541617905560408101516002830155606081015160038301556080810151600483015560a0810151600583015560c08101518051906001600160401b0382116105e157610efb82610ef26006870154611647565b6006870161194d565b602090601f83116001146110085792610f338360079460e094600b9998975f92610ffd5750508160011b915f199060031b1c19161790565b60068501555b0151910155855f52600760205260405f2060018060a01b0386165f5260205260405f20600160ff1982541617905501610f72815461199c565b8091555f19938482019182116106ef5760607f323627f8b048ff78a816132f9cd2f8b43afd69da29d9391e4466ab08d7b34c309187936040519660243588526020880152604087015260018060a01b031694a4815f52600560205260405f20904301904382116106ef576001670de0b6b3a764000091015491400610610ff457005b6109f290611a25565b015190508d80610467565b90600685015f5260205f20915f5b601f198516811061106557508360e093600b98979693600193600797601f1981161061104d575b505050811b016006850155610f39565b01515f1960f88460031b161c191690558c808061103d565b91926020600181928685015181550194019201611016565b634e487b7160e01b5f525f60045260245ffd5b60206110c29160018060a01b036003541660405180809581946352f9882360e11b8352600e8b01908c6004850161191e565b03915afa908115611121575f916110f2575b50156110e05787610dc7565b60405163ce0ca13760e01b8152600490fd5b611114915060203d60201161111a575b61110c818361167f565b810190611906565b886110d4565b503d611102565b6040513d5f823e3d90fd5b9093506020813d602011611158575b816111486020938361167f565b810103126101cd57519287610db6565b3d915061113b565b6040516383bcfb4760e01b8152600490fd5b61118b915060203d60201161111a5761110c818361167f565b88610d79565b60405163a6226dc560e01b8152600490fd5b50670dbd2fc137a3000060243511610d00565b60405163770c15e360e01b8152600490fd5b6001600160a01b0316331415905086610c98565b346101cd5760403660031901126101cd576111f56115d8565b6004355f52600960205260405f209060018060a01b03165f52602052602060405f2054604051908152f35b346101cd5760403660031901126101cd5760043561123c6115d8565b9060015460ff8160a01c169081611330575b5061074e57805f5260206005815260ff600860405f200154161561131e575f8281526008825260408082206001600160a01b0390951680835294835290205460ff1661130c57815f526009815260405f20835f52815260405f20549081156112fa577f9f8684873e5f5094fedbb70190e1ab56fabd995db373022a01120bef46817e0091835f526008825260405f20855f52825260405f20600160ff19825416179055604051908152a3005b60405163439ece7760e01b8152600490fd5b604051630c8d9eab60e31b8152600490fd5b60405163049627f560e01b8152600490fd5b6001600160a01b031633141590508361124e565b346101cd575f3660031901126101cd57602060ff60015460a01c166040519015158152f35b346101cd5760203660031901126101cd576113826115ee565b5f546001600160a01b0390811633036101bb5780600154921691826001600160601b0360a01b821617600155167f3e1afb4f140d5094a49187f56cf5ef68c14651b147b76e5ce25994c0783a60c85f80a3005b346101cd5760203660031901126101cd576004355f52600560205261143b60405f20600681015460018060a01b03600a830154169160ff600882015416600982015490611426600b840154936116a0565b9460405196879660c0885260c0880190611742565b946020870152604086015215156060850152608084015260a08301520390f35b346101cd5761146936611604565b905f52600660205260405f209081548110156101cd576114889161161a565b50805461084960018060a01b03600184015416926002810154906003810154600482015460058301549160076114c0600686016116a0565b9401549460405198899889611780565b346101cd5760203660031901126101cd576114e96115ee565b5f546001600160a01b039190821633036101bb57166115098115156117f5565b6001600160601b0360a01b60025416176002555f80f35b346101cd575f3660031901126101cd576020604051662386f26fc100008152f35b346101cd5760403660031901126101cd5761155a6115d8565b6004355f52600760205260405f209060018060a01b03165f52602052602060ff60405f2054166040519015158152f35b346101cd575f3660031901126101cd576002546040516001600160a01b039091168152602090f35b346101cd5760203660031901126101cd576020906004355f526006825260405f20548152f35b602435906001600160a01b03821682036101cd57565b600435906001600160a01b03821682036101cd57565b60409060031901126101cd576004359060243590565b8054821015611633575f5260205f209060031b01905f90565b634e487b7160e01b5f52603260045260245ffd5b90600182811c92168015611675575b602083101461166157565b634e487b7160e01b5f52602260045260245ffd5b91607f1691611656565b90601f801991011681019081106001600160401b038211176105e157604052565b9060405191825f82546116b281611647565b908184526020946001916001811690815f1461172057506001146116e2575b5050506116e09250038361167f565b565b5f90815285812095935091905b8183106117085750506116e093508201015f80806116d1565b855488840185015294850194879450918301916116ef565b925050506116e094925060ff191682840152151560051b8201015f80806116d1565b91908251928382525f5b84811061176c575050825f602080949584010152601f8019910116010190565b60208183018101518483018201520161174c565b989796936117c395919360e09793610100958c5260018060a01b031660208c015260408b015260608a0152608089015260a08801528060c0880152860190611742565b930152565b9181601f840112156101cd578235916001600160401b0383116101cd57602083818601950101116101cd57565b156117fc57565b60405162461bcd60e51b815260206004820152600c60248201526b5a65726f206164647265737360a01b6044820152606490fd5b9291926001600160401b0382116105e15760405191611859601f8201601f19166020018461167f565b8294818452818301116101cd578281602093845f960137010152565b80545f939261188382611647565b918282526020936001916001811690815f146118e757506001146118a9575b5050505050565b90939495505f92919252835f2092845f945b8386106118d357505050500101905f808080806118a2565b8054858701830152940193859082016118bb565b60ff19168685015250505090151560051b010191505f808080806118a2565b908160209103126101cd575180151581036101cd5790565b61193d93926060928252600f0b60208201528160408201520190611875565b90565b919082018092116106ef57565b601f821161195a57505050565b5f5260205f20906020601f840160051c83019310611992575b601f0160051c01905b818110611987575050565b5f815560010161197c565b9091508190611973565b5f1981146106ef5760010190565b818102929181159184041417156106ef57565b6001600160401b0381116105e15760051b60200190565b81810292915f8212600160ff1b8214166106ef5781840514901517156106ef57565b9190915f83820193841291129080158216911516176106ef57565b80518210156116335760209160051b010190565b90815f5260059160209260058452604090815f206008810195600196600160ff1982541617905560069160068252845f20928354938415611d5b575f198501908582116106ef57600291611a789161161a565b500154945f611a86866119bd565b91611a938951938461167f565b868352601f19611aa2886119bd565b0136878501375f9060028601548803888111905b8b8d8b8610611c915750505050505060099060098501549081811180611c88575b611c35575b509293600e0192505f5b868110611b225750505050507f2aa685cca87e83caa6aad060a047f6877ae695e7f2d4a556e6a51b3fb0842196949596508351928352820152a2565b8b908a5f52858752611b36818b5f2061161a565b50611b418286611a11565b518c5f528489528b5f2060018060a01b038095840154165f5289528b5f20556003928382015490611b8b8c611b85600494611b7f8688015484611d7f565b92611d7f565b90611d67565b9461271095868102968188051490151715611c22575416915493823b156101cd578f948893670de0b6b3a76400008f5f94611be0869251988996879586946305ec94df60e01b865205600f0b908a850161191e565b03925af1611bf1575b505001611ae6565b909192506001600160401b038211611c0f575089528b905f80611be9565b604190634e487b7160e01b5f525260245ffd5b601183634e487b7160e01b5f525260245ffd5b5f5b888110611c445750611adc565b611c5883611c528388611a11565b516119aa565b908215611c7457828f9204611c6d8288611a11565b5201611c37565b634e487b7160e01b5f52601260045260245ffd5b50801515611ad7565b8584959697939492611ca9925f528a8d525f2061161a565b50906106ef578f91611cee91868b8f878b10611cf8575050015460038b0154611cd191611940565b611cdb888a611a11565b525b611ce78789611a11565b5190611940565b9401929190611ab6565b8383670de0b6b3a76400009394611d25611d3094611b856003611d379a0154611b7f600488015484611d7f565b9201549401546119d4565b05906119f6565b5f811315611d4f57611d49888a611a11565b52611cdd565b505f611d49888a611a11565b50505050505050509050565b81810392915f1380158285131691841216176106ef57565b662386f26fc100008082101580611e79575b15611e435782101580611e31575b15611dfb57611dad82611e8b565b91670de0b6b3a76400009081038181116106ef57611dca90611e8b565b91808203925f8212838512811690848613901516176106ef5782611df461193d96611d30946119d4565b05936119d4565b60405162461bcd60e51b815260206004820152600e60248201526d70206f7574206f662072616e676560901b6044820152606490fd5b50670dbd2fc137a30000821115611d9f565b60405162461bcd60e51b815260206004820152600e60248201526d71206f7574206f662072616e676560901b6044820152606490fd5b50670dbd2fc137a30000821115611d91565b801561203c5780670de0b6b3a76400008083129283612023575b505f905b671bc16d674ec8000083121561200557670de0b6b3a763ffff1983016001848213166106ef57818102908082058314901517156106ef57818401935f83861291129080158216911516176106ef578315611c7457600160ff1b938185145f198214166106ef5782611fb2611f88611fac611fba96611fa0600d9660079805611f9a83611f8e81611f3985806119d4565b0580988584611f7e84611f7883611f6c83611f6683829f83611f5a916119d4565b059860038a05906119f6565b976119d4565b059460058605906119f6565b936119d4565b059e8f05906119f6565b9c6119d4565b059960098b05906119f6565b986119d4565b0595600b8705906119f6565b946119d4565b0505906119f6565b908160011b91808305600214901517156106ef5767099e8db03256ce5d908181029181830514901517156106ef57611ff1916119f6565b91611ffa575090565b81146106ef575f0390565b600290920591906001600160ff1b0381146106ef5760010190611ea9565b6ec097ce7bc90715b34b9f10000000000591505f611ea5565b60405162461bcd60e51b815260206004820152601460248201527306c6e5761643a2078206d757374206265203e20360641b6044820152606490fdfea2646970667358221220fa36f45530d58bca815a9ab53da3265b2cdd67c7db5805033b7e45b3093d163064736f6c63430008180033","linkReferences":{}},"methodIdentifiers":{"FORCE_RESOLVE_DELAY()":"5299287b","MAX_PROBABILITY()":"cc40a8ca","MIN_PROBABILITY()":"16342d37","WAD()":"6a146024","WAD_INT()":"e3aef017","agentRegistry()":"0d1cfcae","apiGated()":"394ffd03","createQuery(string,uint256,uint256,uint256,uint256,uint256,uint256,uint256,int128,string,address,string)":"cdb68f5d","forceResolve(uint256)":"a34803ad","getPayoutAmount(uint256,address)":"34633f90","getQueryInfo(uint256)":"33dde715","getQueryParams(uint256)":"81f82338","getReport(uint256,uint256)":"be87bcfc","getReportCount(uint256)":"05666d7b","hasClaimed(uint256,address)":"873f6f9e","hasReported(uint256,address)":"0f0c3fc4","isQueryActive(uint256)":"bec93763","owner()":"8da5cb5b","payouts(uint256,address)":"4c725ab5","protocolAPI()":"8383bba1","queries(uint256)":"ab9c67ad","queryCount()":"9b2aded4","recordPayoutClaim(uint256,address)":"481bf8a8","reports(uint256,uint256)":"2d283db5","reputationManager()":"6b868afb","setAPIGated(bool)":"74032ec1","setAgentRegistry(address)":"28342ecf","setProtocolAPI(address)":"37c22b34","setReputationManager(address)":"56a837f4","submitReport(uint256,uint256,address,uint256,string)":"4e2f7879","transferOwnership(address)":"f2fde38b"},"id":23}