{"abi":[{"type":"constructor","inputs":[{"name":"_skcEngine","type":"address","internalType":"address"},{"name":"_protocolAPI","type":"address","internalType":"address"}],"stateMutability":"nonpayable"},{"type":"function","name":"apiGated","inputs":[],"outputs":[{"name":"","type":"bool","internalType":"bool"}],"stateMutability":"view"},{"type":"function","name":"createQuery","inputs":[{"name":"question","type":"string","internalType":"string"},{"name":"alpha","type":"uint256","internalType":"uint256"},{"name":"k","type":"uint256","internalType":"uint256"},{"name":"flatReward","type":"uint256","internalType":"uint256"},{"name":"bondAmount","type":"uint256","internalType":"uint256"},{"name":"liquidityParam","type":"uint256","internalType":"uint256"},{"name":"initialPrice","type":"uint256","internalType":"uint256"},{"name":"fundingAmount","type":"uint256","internalType":"uint256"},{"name":"minReputation","type":"int128","internalType":"int128"},{"name":"reputationTag","type":"string","internalType":"string"},{"name":"creator","type":"address","internalType":"address"},{"name":"queryChain","type":"string","internalType":"string"}],"outputs":[{"name":"queryId","type":"uint256","internalType":"uint256"}],"stateMutability":"nonpayable"},{"type":"function","name":"getActiveQueries","inputs":[],"outputs":[{"name":"","type":"uint256[]","internalType":"uint256[]"}],"stateMutability":"view"},{"type":"function","name":"getQueriesByCreator","inputs":[{"name":"creator","type":"address","internalType":"address"}],"outputs":[{"name":"","type":"uint256[]","internalType":"uint256[]"}],"stateMutability":"view"},{"type":"function","name":"getQueryCount","inputs":[],"outputs":[{"name":"","type":"uint256","internalType":"uint256"}],"stateMutability":"view"},{"type":"function","name":"isActive","inputs":[{"name":"queryId","type":"uint256","internalType":"uint256"}],"outputs":[{"name":"","type":"bool","internalType":"bool"}],"stateMutability":"view"},{"type":"function","name":"markResolved","inputs":[{"name":"queryId","type":"uint256","internalType":"uint256"}],"outputs":[],"stateMutability":"nonpayable"},{"type":"function","name":"owner","inputs":[],"outputs":[{"name":"","type":"address","internalType":"address"}],"stateMutability":"view"},{"type":"function","name":"protocolAPI","inputs":[],"outputs":[{"name":"","type":"address","internalType":"address"}],"stateMutability":"view"},{"type":"function","name":"setAPIGated","inputs":[{"name":"_gated","type":"bool","internalType":"bool"}],"outputs":[],"stateMutability":"nonpayable"},{"type":"function","name":"setProtocolAPI","inputs":[{"name":"_api","type":"address","internalType":"address"}],"outputs":[],"stateMutability":"nonpayable"},{"type":"function","name":"setSKCEngine","inputs":[{"name":"_engine","type":"address","internalType":"address"}],"outputs":[],"stateMutability":"nonpayable"},{"type":"function","name":"skcEngine","inputs":[],"outputs":[{"name":"","type":"address","internalType":"contract SKCEngine"}],"stateMutability":"view"},{"type":"function","name":"transferOwnership","inputs":[{"name":"newOwner","type":"address","internalType":"address"}],"outputs":[],"stateMutability":"nonpayable"},{"type":"event","name":"QueryDeployed","inputs":[{"name":"queryId","type":"uint256","indexed":true,"internalType":"uint256"},{"name":"creator","type":"address","indexed":true,"internalType":"address"},{"name":"question","type":"string","indexed":false,"internalType":"string"}],"anonymous":false},{"type":"error","name":"NotAuthorized","inputs":[]},{"type":"error","name":"NotOwner","inputs":[]},{"type":"error","name":"ZeroAddress","inputs":[]}],"bytecode":{"object":"0x6080346100e157601f610bbd38819003918201601f19168301916001600160401b038311848410176100e55780849260409485528339810103126100e157610052602061004b836100f9565b92016100f9565b6001600160a01b039182169182156100ad575f80546001600160a01b03199081169094179055600280546001600160a81b0319169190921617600160a01b1790556001805490911633179055604051610aaf908161010e8239f35b60405162461bcd60e51b815260206004820152600c60248201526b5a65726f206164647265737360a01b6044820152606490fd5b5f80fd5b634e487b7160e01b5f52604160045260245ffd5b51906001600160a01b03821682036100e15756fe6080806040526004361015610012575f80fd5b5f3560e01c908163152e7cd21461076e5750806326c8d61d146106f657806337c22b34146106ab578063394ffd03146106865780635f1b71801461063757806374032ec1146105e857806382afd23b146105b95780638383bba1146105915780638da5cb5b14610569578063c2ef93e3146104e9578063cdb68f5d146101c9578063eb654707146101ab578063f113022e146101255763f2fde38b146100b6575f80fd5b34610121576020366003190112610121576100cf6107cb565b600154906001600160a01b0390818316330361010f57169081156100fd576001600160a01b03191617600155005b60405163d92e233d60e01b8152600490fd5b6040516330cd747160e01b8152600490fd5b5f80fd5b3461012157602080600319360112610121576001600160a01b036101476107cb565b165f52600360205260405f20906040519081602084549182815201935f5260205f20915f905b82821061019457610190856101848189038261080f565b60405191829182610790565b0390f35b83548652948501946001938401939091019061016d565b34610121576020366003190112610121576101c7600435610886565b005b34610121576101803660031901126101215760043567ffffffffffffffff8111610121576101fb9036906004016107e1565b90610104359182600f0b8303610121576101243567ffffffffffffffff81116101215761022c9036906004016107e1565b909290610144356001600160a01b0381169003610121576101643567ffffffffffffffff8111610121576102649036906004016107e1565b95909160025460ff8160a01c1690816104d5575b506104c3575f805460405163cdb68f5d60e01b815261018060048201529788946001600160a01b0390921693859392849261033e9261031592916102c161018487018e8e610831565b92602435602488015260443560448801526064356064880152608435608488015260a43560a488015260c43560c488015260e43560e4880152600f0b61010487015260031986840301610124870152610831565b61014480356001600160a01b0316908401528281036003190161016484015260209b8c98610831565b03925af19283156104b8575f93610489575b50610144356001600160a01b03165f908152600385526040902080546801000000000000000091908281101561046157600181018083558110156104755785915f52865f2001556004549081101561046157836103b68260016103ce9401600455610851565b90919082549060031b91821b915f19901b1916179055565b6004545f1981019190821161044d576104427f794db00b21a57949afe651563e5f0a119a63dfd06e04676478e37d5f0b595e1f918593845f526005885260405f20556006875260405f20600160ff1982541617905560405191829188835260018060a01b0361014435169689840191610831565b0390a3604051908152f35b634e487b7160e01b5f52601160045260245ffd5b634e487b7160e01b5f52604160045260245ffd5b634e487b7160e01b5f52603260045260245ffd5b9092508381813d83116104b1575b6104a1818361080f565b8101031261012157519184610350565b503d610497565b6040513d5f823e3d90fd5b60405163ea8e4eb560e01b8152600490fd5b6001600160a01b0316331415905088610278565b34610121575f366003190112610121575f546040516326cab7b560e21b815290602090829060049082906001600160a01b03165afa80156104b8575f90610536575b602090604051908152f35b506020813d602011610561575b816105506020938361080f565b81010312610121576020905161052b565b3d9150610543565b34610121575f366003190112610121576001546040516001600160a01b039091168152602090f35b34610121575f366003190112610121576002546040516001600160a01b039091168152602090f35b34610121576020366003190112610121576004355f526006602052602060ff60405f2054166040519015158152f35b3461012157602036600319011261012157600435801515809103610121576001546001600160a01b0316330361010f576002805460ff60a01b191660a09290921b60ff60a01b16919091179055005b34610121576020366003190112610121576106506107cb565b6001546001600160a01b0391908216330361010f571680156100fd576bffffffffffffffffffffffff60a01b5f5416175f555f80f35b34610121575f36600319011261012157602060ff60025460a01c166040519015158152f35b34610121576020366003190112610121576106c46107cb565b6001546001600160a01b0391908216330361010f57166bffffffffffffffffffffffff60a01b60025416176002555f80f35b34610121575f36600319011261012157604051806004549182815260208091019260045f527f8a35acfbc15ff81a39ae7d344fd709f28e8600b4aa8c65c6b64bfe7fe36bd19b915f905b82821061075757610190856101848189038261080f565b835486529485019460019384019390910190610740565b34610121575f366003190112610121575f546001600160a01b03168152602090f35b60209060206040818301928281528551809452019301915f5b8281106107b7575050505090565b8351855293810193928101926001016107a9565b600435906001600160a01b038216820361012157565b9181601f840112156101215782359167ffffffffffffffff8311610121576020838186019501011161012157565b90601f8019910116810190811067ffffffffffffffff82111761046157604052565b908060209392818452848401375f828201840152601f01601f1916010190565b6004548110156104755760045f527f8a35acfbc15ff81a39ae7d344fd709f28e8600b4aa8c65c6b64bfe7fe36bd19b01905f90565b90815f5260206006815260409060ff825f20541615610a73575f805483516333dde71560e01b8152600480820188905296926001600160a01b03928290602490829086165afa918215610a69575f926109a4575b50501561099d575f81815260068352838120805460ff19169055600583528390205485545f19919082810190811161098a5780820361095c575b50508554801561094957905f9596816005959493019161093383610851565b909182549160031b1b1916905555845252812055565b603187634e487b7160e01b5f525260245ffd5b61096590610851565b90549060031b1c610979816103b684610851565b5f5260058452845f20555f80610914565b601188634e487b7160e01b5f525260245ffd5b5050509050565b9091503d805f843e6109b6818461080f565b820160c0838203126101215782519067ffffffffffffffff9182811161012157840181601f82011215610121578051928311610a5657875191610a02601f8501601f191689018461080f565b838352878483010111610121579086915f5b848110610a425750505f92010152818501519081160361012157606001518015158103610121575f806108da565b818101840151838201850152889301610a14565b60418a634e487b7160e01b5f525260245ffd5b85513d5f823e3d90fd5b5050905056fea264697066735822122062ab473f84c9b235000256fa1bb32dd217983d88abdc614a1ccd71f289bf6d4a64736f6c63430008180033","linkReferences":{}},"methodIdentifiers":{"apiGated()":"394ffd03","createQuery(string,uint256,uint256,uint256,uint256,uint256,uint256,uint256,int128,string,address,string)":"cdb68f5d","getActiveQueries()":"26c8d61d","getQueriesByCreator(address)":"f113022e","getQueryCount()":"c2ef93e3","isActive(uint256)":"82afd23b","markResolved(uint256)":"eb654707","owner()":"8da5cb5b","protocolAPI()":"8383bba1","setAPIGated(bool)":"74032ec1","setProtocolAPI(address)":"37c22b34","setSKCEngine(address)":"5f1b7180","skcEngine()":"152e7cd2","transferOwnership(address)":"f2fde38b"},"id":21}